{
  "transactions": [
    {
      "hash": "0x6d07556413a05227018e463e1a038bdab6d68fff52a9883426a4d7db93c90f40",
      "transactionType": "CALL",
      "contractName": null,
      "contractAddress": "0x83f0fd640500bf9f05d6e5731cb7db5ee0a97b63",
      "function": "applyChainUpdates((uint64,bool,bytes,bytes,(bool,uint128,uint128),(bool,uint128,uint128))[])",
      "arguments": [
        "[(6898391096552792247, true, 0x0000000000000000000000000fd6de19787f699f758ad020efa8e4bffdf93257, 0x0000000000000000000000008a76043513f41d05a190413068aff603c50b33c1, (false, 0, 0), (false, 0, 0))]"
      ],
      "transaction": {
        "from": "0x00e768f1a5ce62792501ab73f8a305e46d7e084f",
        "to": "0x83f0fd640500bf9f05d6e5731cb7db5ee0a97b63",
        "gas": "0x553a3",
        "value": "0x0",
        "input": "0xdb6327dc0000000000000000000000000000000000000000000000000000000000000020000000000000000000000000000000000000000000000000000000000000000100000000000000000000000000000000000000000000000000000000000000200000000000000000000000000000000000000000000000005fbc02272fbf20b700000000000000000000000000000000000000000000000000000000000000010000000000000000000000000000000000000000000000000000000000000140000000000000000000000000000000000000000000000000000000000000018000000000000000000000000000000000000000000000000000000000000000000000000000000000000000000000000000000000000000000000000000000000000000000000000000000000000000000000000000000000000000000000000000000000000000000000000000000000000000000000000000000000000000000000000000000000000000000000000000000000000000000000000000000000000000000000000000000000000000000000000000000000000000000000000000000000000000000000000000000000000000000000000000000000000000200000000000000000000000000fd6de19787f699f758ad020efa8e4bffdf9325700000000000000000000000000000000000000000000000000000000000000200000000000000000000000008a76043513f41d05a190413068aff603c50b33c1",
        "nonce": "0x30",
        "chainId": "0xaa36a7"
      },
      "additionalContracts": [],
      "isFixedGasLimit": false
    }
  ],
  "receipts": [
    {
      "status": "0x1",
      "cumulativeGasUsed": "0xd7f6f1",
      "logs": [
        {
          "address": "0x83f0fd640500bf9f05d6e5731cb7db5ee0a97b63",
          "topics": [
            "0x8d340f17e19058004c20453540862a9c62778504476f6756755cb33bcd6c38c2"
          ],
          "data": "0x0000000000000000000000000000000000000000000000005fbc02272fbf20b7000000000000000000000000000000000000000000000000000000000000010000000000000000000000000000000000000000000000000000000000000000000000000000000000000000000000000000000000000000000000000000000000000000000000000000000000000000000000000000000000000000000000000000000000000000000000000000000000000000000000000000000000000000000000000000000000000000000000000000000000000000000000000000000000000000000000000000000000000000000000000000000000000000000000000000000000000000000000000000000000000000000000000000000000000000200000000000000000000000008a76043513f41d05a190413068aff603c50b33c1",
          "blockHash": "0x6ca80958daae5aec1354502f13b4fd649d853455223dbdb5da862034dc2f6ca9",
          "blockNumber": "0x7c44e0",
          "blockTimestamp": "0x68024ad8",
          "transactionHash": "0x6d07556413a05227018e463e1a038bdab6d68fff52a9883426a4d7db93c90f40",
          "transactionIndex": "0x77",
          "logIndex": "0xba",
          "removed": false
        }
      ],
      "logsBloom": "0x00000000000000400000000000000000000000000000000000000000000040000000000000000020000000000000000000000000000000000004000000000000000000000000000000000000000000000000000000000000000000000000000000000000000000000000800000000000000000000000000000000000000000000000000000000000000000000000000000000000000000000000000000000000000000000000000000000000000000000000000000000000000000000000000000000000000000000000000000000000000000000000000000000000000000000000000000000000000000000000000000000000000000000100000000000000",
      "type": "0x2",
      "transactionHash": "0x6d07556413a05227018e463e1a038bdab6d68fff52a9883426a4d7db93c90f40",
      "transactionIndex": "0x77",
      "blockHash": "0x6ca80958daae5aec1354502f13b4fd649d853455223dbdb5da862034dc2f6ca9",
      "blockNumber": "0x7c44e0",
      "gasUsed": "0x3db40",
      "effectiveGasPrice": "0xa80c41",
      "from": "0x00e768f1a5ce62792501ab73f8a305e46d7e084f",
      "to": "0x83f0fd640500bf9f05d6e5731cb7db5ee0a97b63",
      "contractAddress": null
    }
  ],
  "libraries": [],
  "pending": [],
  "returns": {},
  "timestamp": 1744980697,
  "chain": 11155111,
  "commit": "8421f09"
}