{
  "transactions": [
    {
      "hash": "0x5b96021ecefae98a6daaaf70b084bca6ff1dc27e12ac343f9aa123c5cea3da0e",
      "transactionType": "CALL",
      "contractName": null,
      "contractAddress": "0x524763ca8d424f4f172e4ab3afb030ecc65a5a95",
      "function": "applyChainUpdates((uint64,bool,bytes,bytes,(bool,uint128,uint128),(bool,uint128,uint128))[])",
      "arguments": [
        "[(6898391096552792247, true, 0x000000000000000000000000686135bbb6fca99b5c186dc9feb5a22966fdb7ad, 0x0000000000000000000000001e12653164370bd3e2ac2b709c3e2a4477a16806, (false, 0, 0), (false, 0, 0))]"
      ],
      "transaction": {
        "from": "0x00e768f1a5ce62792501ab73f8a305e46d7e084f",
        "to": "0x524763ca8d424f4f172e4ab3afb030ecc65a5a95",
        "gas": "0x553a3",
        "value": "0x0",
        "input": "0xdb6327dc0000000000000000000000000000000000000000000000000000000000000020000000000000000000000000000000000000000000000000000000000000000100000000000000000000000000000000000000000000000000000000000000200000000000000000000000000000000000000000000000005fbc02272fbf20b70000000000000000000000000000000000000000000000000000000000000001000000000000000000000000000000000000000000000000000000000000014000000000000000000000000000000000000000000000000000000000000001800000000000000000000000000000000000000000000000000000000000000000000000000000000000000000000000000000000000000000000000000000000000000000000000000000000000000000000000000000000000000000000000000000000000000000000000000000000000000000000000000000000000000000000000000000000000000000000000000000000000000000000000000000000000000000000000000000000000000000000000000000000000000000000000000000000000000000000000000000000000000000000000000000000000000020000000000000000000000000686135bbb6fca99b5c186dc9feb5a22966fdb7ad00000000000000000000000000000000000000000000000000000000000000200000000000000000000000001e12653164370bd3e2ac2b709c3e2a4477a16806",
        "nonce": "0x44",
        "chainId": "0xaa36a7"
      },
      "additionalContracts": [],
      "isFixedGasLimit": false
    }
  ],
  "receipts": [
    {
      "status": "0x1",
      "cumulativeGasUsed": "0xc6ccdc",
      "logs": [
        {
          "address": "0x524763ca8d424f4f172e4ab3afb030ecc65a5a95",
          "topics": [
            "0x8d340f17e19058004c20453540862a9c62778504476f6756755cb33bcd6c38c2"
          ],
          "data": "0x0000000000000000000000000000000000000000000000005fbc02272fbf20b7000000000000000000000000000000000000000000000000000000000000010000000000000000000000000000000000000000000000000000000000000000000000000000000000000000000000000000000000000000000000000000000000000000000000000000000000000000000000000000000000000000000000000000000000000000000000000000000000000000000000000000000000000000000000000000000000000000000000000000000000000000000000000000000000000000000000000000000000000000000000000000000000000000000000000000000000000000000000000000000000000000000000000000000000000000200000000000000000000000001e12653164370bd3e2ac2b709c3e2a4477a16806",
          "blockHash": "0xea8d8ce02864cb35cf0c47d6b830b75d791c4f54dbce1af32273d679f24f6519",
          "blockNumber": "0x7c453b",
          "blockTimestamp": "0x68024f34",
          "transactionHash": "0x5b96021ecefae98a6daaaf70b084bca6ff1dc27e12ac343f9aa123c5cea3da0e",
          "transactionIndex": "0x7a",
          "logIndex": "0xa5",
          "removed": false
        }
      ],
      "logsBloom": "0x00000000000000400000000000000000000000000000000000000000000000000000000000000000000000000000000000000000000000000004000000000000000000200000000000000000000000000000000000000000000000000000000000000000000000000000000000000000000000000000000000000000000000000000000000000000000000000000000000000000000000000000000000000000000000000000000000000000000000000000000000000000000000000000000000000000000000000000040000000000000000000000000000000000000000000000000000000000000000000000004000000000000000000100000000000000",
      "type": "0x2",
      "transactionHash": "0x5b96021ecefae98a6daaaf70b084bca6ff1dc27e12ac343f9aa123c5cea3da0e",
      "transactionIndex": "0x7a",
      "blockHash": "0xea8d8ce02864cb35cf0c47d6b830b75d791c4f54dbce1af32273d679f24f6519",
      "blockNumber": "0x7c453b",
      "gasUsed": "0x3db40",
      "effectiveGasPrice": "0x125ce66",
      "from": "0x00e768f1a5ce62792501ab73f8a305e46d7e084f",
      "to": "0x524763ca8d424f4f172e4ab3afb030ecc65a5a95",
      "contractAddress": null
    }
  ],
  "libraries": [],
  "pending": [],
  "returns": {},
  "timestamp": 1744981813,
  "chain": 11155111,
  "commit": "8421f09"
}