{
  "transactions": [
    {
      "hash": "0xfdbc014d25a655fe538907705c7f1b8baef553362ac73ee1648603e056fc69a3",
      "transactionType": "CALL",
      "contractName": null,
      "contractAddress": "0x981e1ec6cf04ee57146b8a973dff6282a8826f9f",
      "function": "applyChainUpdates((uint64,bool,bytes,bytes,(bool,uint128,uint128),(bool,uint128,uint128))[])",
      "arguments": [
        "[(6898391096552792247, true, 0x00000000000000000000000092264481097e45c2a50917e707659027f723b0bb, 0x0000000000000000000000006bbc0bd8db5cb24cda14f0382c67d298f5ff271d, (false, 0, 0), (false, 0, 0))]"
      ],
      "transaction": {
        "from": "0x00e768f1a5ce62792501ab73f8a305e46d7e084f",
        "to": "0x981e1ec6cf04ee57146b8a973dff6282a8826f9f",
        "gas": "0x553a3",
        "value": "0x0",
        "input": "0xdb6327dc0000000000000000000000000000000000000000000000000000000000000020000000000000000000000000000000000000000000000000000000000000000100000000000000000000000000000000000000000000000000000000000000200000000000000000000000000000000000000000000000005fbc02272fbf20b7000000000000000000000000000000000000000000000000000000000000000100000000000000000000000000000000000000000000000000000000000001400000000000000000000000000000000000000000000000000000000000000180000000000000000000000000000000000000000000000000000000000000000000000000000000000000000000000000000000000000000000000000000000000000000000000000000000000000000000000000000000000000000000000000000000000000000000000000000000000000000000000000000000000000000000000000000000000000000000000000000000000000000000000000000000000000000000000000000000000000000000000000000000000000000000000000000000000000000000000000000000000000000000000000000000000000002000000000000000000000000092264481097e45c2a50917e707659027f723b0bb00000000000000000000000000000000000000000000000000000000000000200000000000000000000000006bbc0bd8db5cb24cda14f0382c67d298f5ff271d",
        "nonce": "0x3a",
        "chainId": "0xaa36a7"
      },
      "additionalContracts": [],
      "isFixedGasLimit": false
    }
  ],
  "receipts": [
    {
      "status": "0x1",
      "cumulativeGasUsed": "0xcad657",
      "logs": [
        {
          "address": "0x981e1ec6cf04ee57146b8a973dff6282a8826f9f",
          "topics": [
            "0x8d340f17e19058004c20453540862a9c62778504476f6756755cb33bcd6c38c2"
          ],
          "data": "0x0000000000000000000000000000000000000000000000005fbc02272fbf20b7000000000000000000000000000000000000000000000000000000000000010000000000000000000000000000000000000000000000000000000000000000000000000000000000000000000000000000000000000000000000000000000000000000000000000000000000000000000000000000000000000000000000000000000000000000000000000000000000000000000000000000000000000000000000000000000000000000000000000000000000000000000000000000000000000000000000000000000000000000000000000000000000000000000000000000000000000000000000000000000000000000000000000000000000000000200000000000000000000000006bbc0bd8db5cb24cda14f0382c67d298f5ff271d",
          "blockHash": "0x6b82e72edebb37f4b3097705cff408ae3dc105dc66c94fca9b6c86e2b46b521b",
          "blockNumber": "0x7c4527",
          "blockTimestamp": "0x68024e44",
          "transactionHash": "0xfdbc014d25a655fe538907705c7f1b8baef553362ac73ee1648603e056fc69a3",
          "transactionIndex": "0x6f",
          "logIndex": "0xbd",
          "removed": false
        }
      ],
      "logsBloom": "0x00000000000800400000000000000000000000000000000000000000000000000000000000000000000004000000000000000000000000000004000000000000000000000000000000000000000000000000000000000000000000000000000000000000000000000000000000000000000000000000000000000000000000000000000000000000000000000000000000000000000000000000000000000000000000000000000000000000000000000000000000000000000000000000000000000020000000000000000000000000000000000000000000000000000000000000000000000000000000000000000000000000000000000100000000000000",
      "type": "0x2",
      "transactionHash": "0xfdbc014d25a655fe538907705c7f1b8baef553362ac73ee1648603e056fc69a3",
      "transactionIndex": "0x6f",
      "blockHash": "0x6b82e72edebb37f4b3097705cff408ae3dc105dc66c94fca9b6c86e2b46b521b",
      "blockNumber": "0x7c4527",
      "gasUsed": "0x3db40",
      "effectiveGasPrice": "0xec4d0c",
      "from": "0x00e768f1a5ce62792501ab73f8a305e46d7e084f",
      "to": "0x981e1ec6cf04ee57146b8a973dff6282a8826f9f",
      "contractAddress": null
    }
  ],
  "libraries": [],
  "pending": [],
  "returns": {},
  "timestamp": 1744981572,
  "chain": 11155111,
  "commit": "8421f09"
}