{
  "transactions": [
    {
      "hash": "0x3b56a7c685e9772e722edd934d77797e29688799b7900ef4c7c40883319863d9",
      "transactionType": "CALL",
      "contractName": null,
      "contractAddress": "0x3b0fbb2615c30d5c3a1061124670d7e083165c8d",
      "function": "applyChainUpdates((uint64,bool,bytes,bytes,(bool,uint128,uint128),(bool,uint128,uint128))[])",
      "arguments": [
        "[(6898391096552792247, true, 0x00000000000000000000000091056fc3b8aa249862a820df7d72f77db7b31fca, 0x000000000000000000000000dbdc4c3e48fc0c00e2ef3941a7568b3948143fae, (false, 0, 0), (false, 0, 0))]"
      ],
      "transaction": {
        "from": "0x00e768f1a5ce62792501ab73f8a305e46d7e084f",
        "to": "0x3b0fbb2615c30d5c3a1061124670d7e083165c8d",
        "gas": "0x55392",
        "value": "0x0",
        "input": "0xdb6327dc0000000000000000000000000000000000000000000000000000000000000020000000000000000000000000000000000000000000000000000000000000000100000000000000000000000000000000000000000000000000000000000000200000000000000000000000000000000000000000000000005fbc02272fbf20b7000000000000000000000000000000000000000000000000000000000000000100000000000000000000000000000000000000000000000000000000000001400000000000000000000000000000000000000000000000000000000000000180000000000000000000000000000000000000000000000000000000000000000000000000000000000000000000000000000000000000000000000000000000000000000000000000000000000000000000000000000000000000000000000000000000000000000000000000000000000000000000000000000000000000000000000000000000000000000000000000000000000000000000000000000000000000000000000000000000000000000000000000000000000000000000000000000000000000000000000000000000000000000000000000000000000000002000000000000000000000000091056fc3b8aa249862a820df7d72f77db7b31fca0000000000000000000000000000000000000000000000000000000000000020000000000000000000000000dbdc4c3e48fc0c00e2ef3941a7568b3948143fae",
        "nonce": "0x4e",
        "chainId": "0xaa36a7"
      },
      "additionalContracts": [],
      "isFixedGasLimit": false
    }
  ],
  "receipts": [
    {
      "status": "0x1",
      "cumulativeGasUsed": "0x1b2d8a6",
      "logs": [
        {
          "address": "0x3b0fbb2615c30d5c3a1061124670d7e083165c8d",
          "topics": [
            "0x8d340f17e19058004c20453540862a9c62778504476f6756755cb33bcd6c38c2"
          ],
          "data": "0x0000000000000000000000000000000000000000000000005fbc02272fbf20b700000000000000000000000000000000000000000000000000000000000001000000000000000000000000000000000000000000000000000000000000000000000000000000000000000000000000000000000000000000000000000000000000000000000000000000000000000000000000000000000000000000000000000000000000000000000000000000000000000000000000000000000000000000000000000000000000000000000000000000000000000000000000000000000000000000000000000000000000000000000000000000000000000000000000000000000000000000000000000000000000000000000000000000000000000020000000000000000000000000dbdc4c3e48fc0c00e2ef3941a7568b3948143fae",
          "blockHash": "0x54ba72130ae30a7e87d6f2e591bc79091c9d72cf940bb93eb9c5bc7cee907548",
          "blockNumber": "0x7c456d",
          "blockTimestamp": "0x680251b0",
          "transactionHash": "0x3b56a7c685e9772e722edd934d77797e29688799b7900ef4c7c40883319863d9",
          "transactionIndex": "0xd9",
          "logIndex": "0x1d8",
          "removed": false
        }
      ],
      "logsBloom": "0x00000000000000400000000000000000000000000000000000000000000000000000000000000000000000000000000000000000010000000004000000000000000000008000000000000000000000000000000000000000000000000000000000000000000000000000000000000000000000000000000000000000000000000000000000000000000000000000000000000000000000000000000000000000000000000000000000000000000000000000000000000000000000000000000000000000000000000000000000000000000000000000000000000000000000000000000000000000000000000000000000002000000000000100000000000000",
      "type": "0x2",
      "transactionHash": "0x3b56a7c685e9772e722edd934d77797e29688799b7900ef4c7c40883319863d9",
      "transactionIndex": "0xd9",
      "blockHash": "0x54ba72130ae30a7e87d6f2e591bc79091c9d72cf940bb93eb9c5bc7cee907548",
      "blockNumber": "0x7c456d",
      "gasUsed": "0x3db34",
      "effectiveGasPrice": "0x13a4fd6",
      "from": "0x00e768f1a5ce62792501ab73f8a305e46d7e084f",
      "to": "0x3b0fbb2615c30d5c3a1061124670d7e083165c8d",
      "contractAddress": null
    }
  ],
  "libraries": [],
  "pending": [],
  "returns": {},
  "timestamp": 1744982449,
  "chain": 11155111,
  "commit": "8421f09"
}