{
  "transactions": [
    {
      "hash": "0x9390be09ef70abc05539fa5c850cc9e1343a82143f28636e0f58fd81faa80213",
      "transactionType": "CALL",
      "contractName": null,
      "contractAddress": "0x779877a7b0d9e8603169ddbd7836e478b4624789",
      "function": "approve(address,uint256)",
      "arguments": [
        "0x0BF3dE8c5D3e8A2B34D2BEeB17ABfCeBaf363A59",
        "19274773594501869"
      ],
      "transaction": {
        "from": "0x00e768f1a5ce62792501ab73f8a305e46d7e084f",
        "to": "0x779877a7b0d9e8603169ddbd7836e478b4624789",
        "gas": "0x1081f",
        "value": "0x0",
        "input": "0x095ea7b30000000000000000000000000bf3de8c5d3e8a2b34d2beeb17abfcebaf363a5900000000000000000000000000000000000000000000000000447a4df139f2ed",
        "nonce": "0x50",
        "chainId": "0xaa36a7"
      },
      "additionalContracts": [],
      "isFixedGasLimit": false
    },
    {
      "hash": "0xff906f895c2f1739da0ed8e43eced969b9cf3f8de68f2ec2953bb6a5ec48c7ff",
      "transactionType": "CALL",
      "contractName": null,
      "contractAddress": "0x148dcf72cc76e604c2ae9c76392051e02dd9df7f",
      "function": "approve(address,uint256)",
      "arguments": [
        "0x0BF3dE8c5D3e8A2B34D2BEeB17ABfCeBaf363A59",
        "100000"
      ],
      "transaction": {
        "from": "0x00e768f1a5ce62792501ab73f8a305e46d7e084f",
        "to": "0x148dcf72cc76e604c2ae9c76392051e02dd9df7f",
        "gas": "0x11554",
        "value": "0x0",
        "input": "0x095ea7b30000000000000000000000000bf3de8c5d3e8a2b34d2beeb17abfcebaf363a5900000000000000000000000000000000000000000000000000000000000186a0",
        "nonce": "0x51",
        "chainId": "0xaa36a7"
      },
      "additionalContracts": [],
      "isFixedGasLimit": false
    },
    {
      "hash": "0xfc6ce54f06d3d4a0e09f876bd289515cfb105e099fd0195020e276f2477f8f4b",
      "transactionType": "CALL",
      "contractName": null,
      "contractAddress": "0x0bf3de8c5d3e8a2b34d2beeb17abfcebaf363a59",
      "function": "ccipSend(uint64,(bytes,bytes,(address,uint256)[],address,bytes))",
      "arguments": [
        "6898391096552792247",
        "(0x00000000000000000000000000e768f1a5ce62792501ab73f8a305e46d7e084f, 0x, [(0x148dCf72cc76e604c2aE9c76392051e02DD9Df7f, 100000)], 0x779877A7B0D9E8603169DdbD7836e478b4624789, 0x97a657c90000000000000000000000000000000000000000000000000000000000000000)"
      ],
      "transaction": {
        "from": "0x00e768f1a5ce62792501ab73f8a305e46d7e084f",
        "to": "0x0bf3de8c5d3e8a2b34d2beeb17abfcebaf363a59",
        "gas": "0x6642a",
        "value": "0x0",
        "input": "0x96f4e9f90000000000000000000000000000000000000000000000005fbc02272fbf20b7000000000000000000000000000000000000000000000000000000000000004000000000000000000000000000000000000000000000000000000000000000a000000000000000000000000000000000000000000000000000000000000000e00000000000000000000000000000000000000000000000000000000000000100000000000000000000000000779877a7b0d9e8603169ddbd7836e478b46247890000000000000000000000000000000000000000000000000000000000000160000000000000000000000000000000000000000000000000000000000000002000000000000000000000000000e768f1a5ce62792501ab73f8a305e46d7e084f00000000000000000000000000000000000000000000000000000000000000000000000000000000000000000000000000000000000000000000000000000001000000000000000000000000148dcf72cc76e604c2ae9c76392051e02dd9df7f00000000000000000000000000000000000000000000000000000000000186a0000000000000000000000000000000000000000000000000000000000000002497a657c9000000000000000000000000000000000000000000000000000000000000000000000000000000000000000000000000000000000000000000000000",
        "nonce": "0x52",
        "chainId": "0xaa36a7"
      },
      "additionalContracts": [],
      "isFixedGasLimit": false
    }
  ],
  "receipts": [
    {
      "status": "0x1",
      "cumulativeGasUsed": "0x91a82e",
      "logs": [
        {
          "address": "0x779877a7b0d9e8603169ddbd7836e478b4624789",
          "topics": [
            "0x8c5be1e5ebec7d5bd14f71427d1e84f3dd0314c0f7b2291e5b200ac8c7c3b925",
            "0x00000000000000000000000000e768f1a5ce62792501ab73f8a305e46d7e084f",
            "0x0000000000000000000000000bf3de8c5d3e8a2b34d2beeb17abfcebaf363a59"
          ],
          "data": "0x00000000000000000000000000000000000000000000000000447a4df139f2ed",
          "blockHash": "0x6ec54865e53f043b98dc79f4e09252edacacf45bba87886be0445e30c1e4eeb4",
          "blockNumber": "0x7c4572",
          "blockTimestamp": "0x680251ec",
          "transactionHash": "0x9390be09ef70abc05539fa5c850cc9e1343a82143f28636e0f58fd81faa80213",
          "transactionIndex": "0x69",
          "logIndex": "0x9f",
          "removed": false
        }
      ],
      "logsBloom": "0x00000004000040000000000000000000000000000000000000000000000000000000000000000000000000000000000000000000000000000000000000200000000001000000000000000000000000000000000000000000000000000000000000000000000100000000000000000000000000000000000000000000000000000000000000000000000000010000800000000000000000000000000000000000020000000000080000000000000000000000000000000000000000000000000000000000000000000000000000000400000000000000000100000000000000000010000000000000000000000000000000000000000000000000000000000000",
      "type": "0x2",
      "transactionHash": "0x9390be09ef70abc05539fa5c850cc9e1343a82143f28636e0f58fd81faa80213",
      "transactionIndex": "0x69",
      "blockHash": "0x6ec54865e53f043b98dc79f4e09252edacacf45bba87886be0445e30c1e4eeb4",
      "blockNumber": "0x7c4572",
      "gasUsed": "0xb499",
      "effectiveGasPrice": "0x163c5a3",
      "from": "0x00e768f1a5ce62792501ab73f8a305e46d7e084f",
      "to": "0x779877a7b0d9e8603169ddbd7836e478b4624789",
      "contractAddress": null
    },
    {
      "status": "0x1",
      "cumulativeGasUsed": "0x9265cf",
      "logs": [
        {
          "address": "0x148dcf72cc76e604c2ae9c76392051e02dd9df7f",
          "topics": [
            "0x8c5be1e5ebec7d5bd14f71427d1e84f3dd0314c0f7b2291e5b200ac8c7c3b925",
            "0x00000000000000000000000000e768f1a5ce62792501ab73f8a305e46d7e084f",
            "0x0000000000000000000000000bf3de8c5d3e8a2b34d2beeb17abfcebaf363a59"
          ],
          "data": "0x00000000000000000000000000000000000000000000000000000000000186a0",
          "blockHash": "0x6ec54865e53f043b98dc79f4e09252edacacf45bba87886be0445e30c1e4eeb4",
          "blockNumber": "0x7c4572",
          "blockTimestamp": "0x680251ec",
          "transactionHash": "0xff906f895c2f1739da0ed8e43eced969b9cf3f8de68f2ec2953bb6a5ec48c7ff",
          "transactionIndex": "0x6a",
          "logIndex": "0xa0",
          "removed": false
        }
      ],
      "logsBloom": "0x00000000000040000000000000000000000000000000000000000000000000000000000000000000000000000000000000000000000000000000000000200000000001000000000000000000000000000000000000000000000000000000000000000040000100000000000000000000000000000000000000000000000000000000000000000000000000010000000000000000000000000000000000000000020000000000080000000000000000000000000000000000020000000000000000000000000000000000000000000400000000000000000000000000000000000010000000000000000000000000000000000001000000000000000000000000",
      "type": "0x2",
      "transactionHash": "0xff906f895c2f1739da0ed8e43eced969b9cf3f8de68f2ec2953bb6a5ec48c7ff",
      "transactionIndex": "0x6a",
      "blockHash": "0x6ec54865e53f043b98dc79f4e09252edacacf45bba87886be0445e30c1e4eeb4",
      "blockNumber": "0x7c4572",
      "gasUsed": "0xbda1",
      "effectiveGasPrice": "0x163c5a3",
      "from": "0x00e768f1a5ce62792501ab73f8a305e46d7e084f",
      "to": "0x148dcf72cc76e604c2ae9c76392051e02dd9df7f",
      "contractAddress": null
    },
    {
      "status": "0x1",
      "cumulativeGasUsed": "0x97065e",
      "logs": [
        {
          "address": "0x779877a7b0d9e8603169ddbd7836e478b4624789",
          "topics": [
            "0xddf252ad1be2c89b69c2b068fc378daa952ba7f163c4a11628f55a4df523b3ef",
            "0x00000000000000000000000000e768f1a5ce62792501ab73f8a305e46d7e084f",
            "0x000000000000000000000000a2865e4f36760f5fa5c8f958336120f2df0d974b"
          ],
          "data": "0x00000000000000000000000000000000000000000000000000447a4df139f2ed",
          "blockHash": "0x6ec54865e53f043b98dc79f4e09252edacacf45bba87886be0445e30c1e4eeb4",
          "blockNumber": "0x7c4572",
          "blockTimestamp": "0x680251ec",
          "transactionHash": "0xfc6ce54f06d3d4a0e09f876bd289515cfb105e099fd0195020e276f2477f8f4b",
          "transactionIndex": "0x6b",
          "logIndex": "0xa1",
          "removed": false
        },
        {
          "address": "0x779877a7b0d9e8603169ddbd7836e478b4624789",
          "topics": [
            "0x8c5be1e5ebec7d5bd14f71427d1e84f3dd0314c0f7b2291e5b200ac8c7c3b925",
            "0x00000000000000000000000000e768f1a5ce62792501ab73f8a305e46d7e084f",
            "0x0000000000000000000000000bf3de8c5d3e8a2b34d2beeb17abfcebaf363a59"
          ],
          "data": "0x0000000000000000000000000000000000000000000000000000000000000000",
          "blockHash": "0x6ec54865e53f043b98dc79f4e09252edacacf45bba87886be0445e30c1e4eeb4",
          "blockNumber": "0x7c4572",
          "blockTimestamp": "0x680251ec",
          "transactionHash": "0xfc6ce54f06d3d4a0e09f876bd289515cfb105e099fd0195020e276f2477f8f4b",
          "transactionIndex": "0x6b",
          "logIndex": "0xa2",
          "removed": false
        },
        {
          "address": "0x148dcf72cc76e604c2ae9c76392051e02dd9df7f",
          "topics": [
            "0xddf252ad1be2c89b69c2b068fc378daa952ba7f163c4a11628f55a4df523b3ef",
            "0x0000000000000000000000000000000000000000000000000000000000000000",
            "0x00000000000000000000000000e768f1a5ce62792501ab73f8a305e46d7e084f"
          ],
          "data": "0x0000000000000000000000000000000000000000000000000000000000000000",
          "blockHash": "0x6ec54865e53f043b98dc79f4e09252edacacf45bba87886be0445e30c1e4eeb4",
          "blockNumber": "0x7c4572",
          "blockTimestamp": "0x680251ec",
          "transactionHash": "0xfc6ce54f06d3d4a0e09f876bd289515cfb105e099fd0195020e276f2477f8f4b",
          "transactionIndex": "0x6b",
          "logIndex": "0xa3",
          "removed": false
        },
        {
          "address": "0x148dcf72cc76e604c2ae9c76392051e02dd9df7f",
          "topics": [
            "0xddf252ad1be2c89b69c2b068fc378daa952ba7f163c4a11628f55a4df523b3ef",
            "0x0000000000000000000000000000000000000000000000000000000000000000",
            "0x0000000000000000000000003b0fbb2615c30d5c3a1061124670d7e083165c8d"
          ],
          "data": "0x0000000000000000000000000000000000000000000000000000000000000000",
          "blockHash": "0x6ec54865e53f043b98dc79f4e09252edacacf45bba87886be0445e30c1e4eeb4",
          "blockNumber": "0x7c4572",
          "blockTimestamp": "0x680251ec",
          "transactionHash": "0xfc6ce54f06d3d4a0e09f876bd289515cfb105e099fd0195020e276f2477f8f4b",
          "transactionIndex": "0x6b",
          "logIndex": "0xa4",
          "removed": false
        },
        {
          "address": "0x148dcf72cc76e604c2ae9c76392051e02dd9df7f",
          "topics": [
            "0xddf252ad1be2c89b69c2b068fc378daa952ba7f163c4a11628f55a4df523b3ef",
            "0x00000000000000000000000000e768f1a5ce62792501ab73f8a305e46d7e084f",
            "0x0000000000000000000000003b0fbb2615c30d5c3a1061124670d7e083165c8d"
          ],
          "data": "0x00000000000000000000000000000000000000000000000000000000000186a0",
          "blockHash": "0x6ec54865e53f043b98dc79f4e09252edacacf45bba87886be0445e30c1e4eeb4",
          "blockNumber": "0x7c4572",
          "blockTimestamp": "0x680251ec",
          "transactionHash": "0xfc6ce54f06d3d4a0e09f876bd289515cfb105e099fd0195020e276f2477f8f4b",
          "transactionIndex": "0x6b",
          "logIndex": "0xa5",
          "removed": false
        },
        {
          "address": "0x148dcf72cc76e604c2ae9c76392051e02dd9df7f",
          "topics": [
            "0xddf252ad1be2c89b69c2b068fc378daa952ba7f163c4a11628f55a4df523b3ef",
            "0x0000000000000000000000000000000000000000000000000000000000000000",
            "0x0000000000000000000000003b0fbb2615c30d5c3a1061124670d7e083165c8d"
          ],
          "data": "0x0000000000000000000000000000000000000000000000000000000000000000",
          "blockHash": "0x6ec54865e53f043b98dc79f4e09252edacacf45bba87886be0445e30c1e4eeb4",
          "blockNumber": "0x7c4572",
          "blockTimestamp": "0x680251ec",
          "transactionHash": "0xfc6ce54f06d3d4a0e09f876bd289515cfb105e099fd0195020e276f2477f8f4b",
          "transactionIndex": "0x6b",
          "logIndex": "0xa6",
          "removed": false
        },
        {
          "address": "0x148dcf72cc76e604c2ae9c76392051e02dd9df7f",
          "topics": [
            "0xddf252ad1be2c89b69c2b068fc378daa952ba7f163c4a11628f55a4df523b3ef",
            "0x0000000000000000000000003b0fbb2615c30d5c3a1061124670d7e083165c8d",
            "0x0000000000000000000000000000000000000000000000000000000000000000"
          ],
          "data": "0x00000000000000000000000000000000000000000000000000000000000186a0",
          "blockHash": "0x6ec54865e53f043b98dc79f4e09252edacacf45bba87886be0445e30c1e4eeb4",
          "blockNumber": "0x7c4572",
          "blockTimestamp": "0x680251ec",
          "transactionHash": "0xfc6ce54f06d3d4a0e09f876bd289515cfb105e099fd0195020e276f2477f8f4b",
          "transactionIndex": "0x6b",
          "logIndex": "0xa7",
          "removed": false
        },
        {
          "address": "0xa2865e4f36760f5fa5c8f958336120f2df0d974b",
          "topics": [
            "0xd0c3c799bf9e2639de44391e7f524d229b2b55f5b1ea94b2bf7da42f7243dddd"
          ],
          "data": "0x0000000000000000000000000000000000000000000000000000000000000020000000000000000000000000000000000000000000000000de41ba4fc9d91ad900000000000000000000000000e768f1a5ce62792501ab73f8a305e46d7e084f00000000000000000000000000e768f1a5ce62792501ab73f8a305e46d7e084f00000000000000000000000000000000000000000000000000000000000001ef000000000000000000000000000000000000000000000000000000000000000000000000000000000000000000000000000000000000000000000000000000000000000000000000000000000000000000000000000000000000000000000001000000000000000000000000779877a7b0d9e8603169ddbd7836e478b462478900000000000000000000000000000000000000000000000000447a4df139f2ed00000000000000000000000000000000000000000000000000000000000001a000000000000000000000000000000000000000000000000000000000000001c00000000000000000000000000000000000000000000000000000000000000220432a15da1371133fa7e9146318f78e5e198e3e6e54822e22cbca5d4d79f8100000000000000000000000000000000000000000000000000000000000000000000000000000000000000000000000000000000000000000000000000000000001000000000000000000000000148dcf72cc76e604c2ae9c76392051e02dd9df7f00000000000000000000000000000000000000000000000000000000000186a00000000000000000000000000000000000000000000000000000000000000001000000000000000000000000000000000000000000000000000000000000002000000000000000000000000000000000000000000000000000000000000001600000000000000000000000000000000000000000000000000000000000000020000000000000000000000000000000000000000000000000000000000000008000000000000000000000000000000000000000000000000000000000000000c000000000000000000000000000000000000000000000000000000000000001000000000000000000000000000000000000000000000000000000000000015f9000000000000000000000000000000000000000000000000000000000000000200000000000000000000000003b0fbb2615c30d5c3a1061124670d7e083165c8d0000000000000000000000000000000000000000000000000000000000000020000000000000000000000000dbdc4c3e48fc0c00e2ef3941a7568b3948143fae00000000000000000000000000000000000000000000000000000000000000200000000000000000000000000000000000000000000000000000000ba43b7400",
          "blockHash": "0x6ec54865e53f043b98dc79f4e09252edacacf45bba87886be0445e30c1e4eeb4",
          "blockNumber": "0x7c4572",
          "blockTimestamp": "0x680251ec",
          "transactionHash": "0xfc6ce54f06d3d4a0e09f876bd289515cfb105e099fd0195020e276f2477f8f4b",
          "transactionIndex": "0x6b",
          "logIndex": "0xa8",
          "removed": false
        }
      ],
      "logsBloom": "0x00000004000040000000000000000000002000000000000000000000000000000000000000000000000000000000000000000000000000000000000000200000000001000000000000000008000000000000000000000000000000000800000010000040028100000000000000000800000000000000100000000010000000000000000000000000000000010000800000000000000000000000000000000000020000000000080400000000000000000000000000000000020100010000000000000002000000000000000000000400000000000100000100000000000020000010800000000000000000000000000004000801000000000000000000000000",
      "type": "0x2",
      "transactionHash": "0xfc6ce54f06d3d4a0e09f876bd289515cfb105e099fd0195020e276f2477f8f4b",
      "transactionIndex": "0x6b",
      "blockHash": "0x6ec54865e53f043b98dc79f4e09252edacacf45bba87886be0445e30c1e4eeb4",
      "blockNumber": "0x7c4572",
      "gasUsed": "0x4a08f",
      "effectiveGasPrice": "0x163c5a3",
      "from": "0x00e768f1a5ce62792501ab73f8a305e46d7e084f",
      "to": "0x0bf3de8c5d3e8a2b34d2beeb17abfcebaf363a59",
      "contractAddress": null
    }
  ],
  "libraries": [],
  "pending": [],
  "returns": {},
  "timestamp": 1744982509,
  "chain": 11155111,
  "commit": "8421f09"
}